:100000000C942A000C943C000C943C000C943C0092
:100010000C943C000C943C000C943C000C943C0070
:100020000C943C000C94D1000C943C000C943C00CB
:100030000C943C000C943C000C943C000C943C0050
:100040000C943C000C943C000C943C000C943C0040
:100050000C943C0011241FBECFE5D4E0DEBFCDBF21
:1000600010E0A0E6B0E001C01D92A236B107E1F7B2
:100070000E9475000C9493010C940000DF93CF93C1
:1000800000D0CDB7DEB789836A83A8E3B0E0E8E3A8
:10009000F0E080818F7E8C9389810E9404018A81A7
:1000A0000E940401A8E3B0E0E8E3F0E08081806111
:1000B0008C930F900F90CF91DF910895DF93CF93A2
:1000C000CDB7DEB789E06FE00E943E008BE063E0D1
:1000D0000E943E008AE068E00E943E008CE06FE0F3
:1000E0000E943E00CF91DF910895DF93CF9300D01F
:1000F000CDB7DEB71A821982AFE5B0E0EFE5F0E0E8
:10010000808180688C930E94EE000E945E000E94B5
:1001100059018A819AE0692F0E948701892F982FBF
:1001200084E0692F0E943E008A819AE0692F0E9434
:100130008701982F83E0692F0E943E0089819AE011
:10014000692F0E948701892F982F82E0692F0E94D2
:100150003E0089819AE0692F0E948701982F81E0F3
:10016000692F0E943E008091600090916100843070
:1001700091057CF28A818B3320F01A8289818F5F0E
:10018000898389818B3308F019828A818F5F8A8302
:10019000E2E5F0E086E0808310926100109260005A
:1001A000B8CF1F920F920FB60F9211248F939F9387
:1001B000DF93CF93CDB7DEB780916000909161005F
:1001C00001969093610080936000CF91DF919F91A1
:1001D0008F910F900FBE0F901F901895DF93CF93C4
:1001E000CDB7DEB7E7E3F0E080EB8083A7E3B0E0D4
:1001F000E7E3F0E080818F7B8C93EDE2F0E081E536
:100200008083CF91DF910895DF93CF930F92CDB785
:10021000DEB78983EFE2F0E089818083EEE2F0E0EF
:1002200080818823DCF70F90CF91DF910895DF93D1
:10023000CF93CDB7DEB7E7E3F0E080E48083A7E3B8
:10024000B0E0E7E3F0E080818F748C93EDE2F0E0C2
:1002500080E48083ADE2B0E0EDE2F0E080818C608C
:100260008C93CF91DF910895DF93CF93CDB7DEB715
:10027000EEE2F0E080818823DCF7EFE2F0E08081BD
:10028000CF91DF910895DF93CF930F92CDB7DEB773
:100290008983EFE2F0E089818083EEE2F0E0808103
:1002A0008823DCF7EFE2F0E080810F90CF91DF91BF
:1002B0000895DF93CF93CDB7DEB7E2E5F0E086E0B7
:1002C0008083A3E5B0E0E3E5F0E0808180688C9373
:1002D000A9E5B0E0E9E5F0E0808181608C93A3E5D9
:1002E000B0E0E3E5F0E08081877B8C93A3E5B0E0AC
:1002F000E3E5F0E0808185608C93A3E5B0E0E3E581
:10030000F0E080818D7F8C93CF91DF910895991BD0
:1003100079E004C0991F961708F0961B881F7A95FC
:0A032000C9F780950895F894FFCF07
:00000001FF
